{
  "contractName": "SimpleStorage",
  "abi": [
    {
      "constant": false,
      "inputs": [
        {
          "internalType": "string",
          "name": "x",
          "type": "string"
        }
      ],
      "name": "set",
      "outputs": [],
      "payable": false,
      "stateMutability": "nonpayable",
      "type": "function"
    }
  ],
  "bytecode": "0x608060405234801561001057600080fd5b506101df806100206000396000f3fe608060405234801561001057600080fd5b506004361061002b5760003560e01c80634ed3885e14610030575b600080fd5b6100e96004803603602081101561004657600080fd5b810190808035906020019064010000000081111561006357600080fd5b82018360208201111561007557600080fd5b8035906020019184600183028401116401000000008311171561009757600080fd5b91908080601f016020809104026020016040519081016040528093929190818152602001838380828437600081840152601f19601f8201169050808301925050505050505091929192905050506100eb565b005b8060009080519060200190610101929190610105565b5050565b828054600181600116156101000203166002900490600052602060002090601f016020900481019282601f1061014657805160ff1916838001178555610174565b82800160010185558215610174579182015b82811115610173578251825591602001919060010190610158565b5b5090506101819190610185565b5090565b6101a791905b808211156101a357600081600090555060010161018b565b5090565b9056fea265627a7a72315820df10ee66dc49bc1dbc3f724c3d5fc07174566cdf309294329e1dd40202f8acc464736f6c63430005100032",
  "source": "// SPDX-License-Identifier: GPL-3.0-or-later\npragma solidity >=0.5 <0.9.0;\n\n\ncontract SimpleStorage {\n  string storedData;\n\n  function set(string memory x) public {\n    storedData = x;\n  }\n}\n",
  "sourcePath": "/Users/macpro/Desktop/workspace/fiware/blockchain_ge/demo_eth_contract/contracts/SimpleStorage.sol",
  "compiler": {
    "name": "solc",
    "version": "0.5.16+commit.9c3226ce.Emscripten.clang"
  },
  "schemaVersion": "3.3.4",
  "updatedAt": "2021-04-23T09:56:03.971Z",
  "devdoc": {
    "methods": {}
  },
  "userdoc": {
    "methods": {}
  }
}