{
  "contractName": "SimpleStorage",
  "abi": [
    {
      "constant": false,
      "inputs": [
        {
          "internalType": "uint256",
          "name": "x",
          "type": "uint256"
        }
      ],
      "name": "set",
      "outputs": [],
      "payable": false,
      "stateMutability": "nonpayable",
      "type": "function"
    }
  ],
  "bytecode": "0x6080604052348015600f57600080fd5b5060978061001e6000396000f3fe6080604052348015600f57600080fd5b506004361060285760003560e01c806360fe47b114602d575b600080fd5b605660048036036020811015604157600080fd5b81019080803590602001909291905050506058565b005b806000819055505056fea265627a7a723158203e397fec70d194de0586cd88b0af08f98f12748e67cbf0f9ac8ed53562cdf99e64736f6c63430005100032",
  "source": "// SPDX-License-Identifier: GPL-3.0-or-later\npragma solidity >=0.5 <0.9.0;\n\n\ncontract SimpleStorage {\n  uint256 storedData;\n\n  function set(uint256 x) public {\n    storedData = x;\n  }\n}\n",
  "sourcePath": "/Users/macpro/Desktop/workspace/fiware/blockchain_ge/demo_eth_contract/contracts/SimpleStorage.sol",
  "compiler": {
    "name": "solc",
    "version": "0.5.16+commit.9c3226ce.Emscripten.clang"
  },
  "schemaVersion": "3.3.4",
  "updatedAt": "2021-04-23T09:24:09.622Z",
  "devdoc": {
    "methods": {}
  },
  "userdoc": {
    "methods": {}
  }
}