{
  "contractName": "SimpleStorage",
  "abi": [
    {
      "constant": false,
      "inputs": [
        {
          "name": "x",
          "type": "uint256"
        }
      ],
      "name": "set",
      "outputs": [],
      "payable": false,
      "stateMutability": "nonpayable",
      "type": "function"
    }
  ],
  "bytecode": "0x6080604052348015600f57600080fd5b5060a48061001e6000396000f300608060405260043610603f576000357c0100000000000000000000000000000000000000000000000000000000900463ffffffff16806360fe47b1146044575b600080fd5b348015604f57600080fd5b50606c60048036038101908080359060200190929190505050606e565b005b80600081905550505600a165627a7a72305820eda4e57caaae8c41ba8c2cd66bc25774bf79d8077ceba18f22a3027614ebefa70029",
  "source": "pragma solidity ^0.4.22;\n\n\ncontract SimpleStorage {\n  uint256 storedData;\n\n  function set(uint256 x) public {\n    storedData = x;\n  }\n}\n",
  "sourcePath": "/Users/macpro/Desktop/workspace/fiware/blockchain_ge/DemoEthContract/contracts/SimpleStorage.sol",
  "compiler": {
    "name": "solc",
    "version": "0.4.25+commit.59dbf8f1.Emscripten.clang"
  },
  "schemaVersion": "2.0.2",
  "updatedAt": "2021-02-05T09:58:49.080Z"
}